{
  "contractName": "TokenVesting",
  "abi": [
    {
      "inputs": [
        {
          "internalType": "address",
          "name": "_beneficiary",
          "type": "address"
        },
        {
          "internalType": "uint256",
          "name": "_start",
          "type": "uint256"
        },
        {
          "internalType": "uint256",
          "name": "_cliffDuration",
          "type": "uint256"
        },
        {
          "internalType": "uint256",
          "name": "_duration",
          "type": "uint256"
        },
        {
          "internalType": "bool",
          "name": "_revocable",
          "type": "bool"
        },
        {
          "internalType": "address",
          "name": "_owner",
          "type": "address"
        }
      ],
      "stateMutability": "nonpayable",
      "type": "constructor"
    },
    {
      "anonymous": false,
      "inputs": [
        {
          "indexed": true,
          "internalType": "address",
          "name": "previousOwner",
          "type": "address"
        },
        {
          "indexed": true,
          "internalType": "address",
          "name": "newOwner",
          "type": "address"
        }
      ],
      "name": "OwnershipTransferred",
      "type": "event"
    },
    {
      "anonymous": false,
      "inputs": [
        {
          "indexed": false,
          "internalType": "address",
          "name": "token",
          "type": "address"
        }
      ],
      "name": "TokenVestingRevoked",
      "type": "event"
    },
    {
      "anonymous": false,
      "inputs": [
        {
          "indexed": false,
          "internalType": "address",
          "name": "token",
          "type": "address"
        },
        {
          "indexed": false,
          "internalType": "uint256",
          "name": "amount",
          "type": "uint256"
        }
      ],
      "name": "TokensReleased",
      "type": "event"
    },
    {
      "inputs": [],
      "name": "owner",
      "outputs": [
        {
          "internalType": "address",
          "name": "",
          "type": "address"
        }
      ],
      "stateMutability": "view",
      "type": "function"
    },
    {
      "inputs": [],
      "name": "renounceOwnership",
      "outputs": [],
      "stateMutability": "nonpayable",
      "type": "function"
    },
    {
      "inputs": [
        {
          "internalType": "address",
          "name": "newOwner",
          "type": "address"
        }
      ],
      "name": "transferOwnership",
      "outputs": [],
      "stateMutability": "nonpayable",
      "type": "function"
    },
    {
      "inputs": [],
      "name": "getBeneficiary",
      "outputs": [
        {
          "internalType": "address",
          "name": "",
          "type": "address"
        }
      ],
      "stateMutability": "view",
      "type": "function"
    },
    {
      "inputs": [],
      "name": "getCliff",
      "outputs": [
        {
          "internalType": "uint256",
          "name": "",
          "type": "uint256"
        }
      ],
      "stateMutability": "view",
      "type": "function"
    },
    {
      "inputs": [],
      "name": "getStart",
      "outputs": [
        {
          "internalType": "uint256",
          "name": "",
          "type": "uint256"
        }
      ],
      "stateMutability": "view",
      "type": "function"
    },
    {
      "inputs": [],
      "name": "getDuration",
      "outputs": [
        {
          "internalType": "uint256",
          "name": "",
          "type": "uint256"
        }
      ],
      "stateMutability": "view",
      "type": "function"
    },
    {
      "inputs": [],
      "name": "getRevocable",
      "outputs": [
        {
          "internalType": "bool",
          "name": "",
          "type": "bool"
        }
      ],
      "stateMutability": "view",
      "type": "function"
    },
    {
      "inputs": [
        {
          "internalType": "address",
          "name": "token",
          "type": "address"
        }
      ],
      "name": "getReleased",
      "outputs": [
        {
          "internalType": "uint256",
          "name": "",
          "type": "uint256"
        }
      ],
      "stateMutability": "view",
      "type": "function"
    },
    {
      "inputs": [
        {
          "internalType": "address",
          "name": "token",
          "type": "address"
        }
      ],
      "name": "getRevoked",
      "outputs": [
        {
          "internalType": "bool",
          "name": "",
          "type": "bool"
        }
      ],
      "stateMutability": "view",
      "type": "function"
    },
    {
      "inputs": [
        {
          "internalType": "contract IBEP20",
          "name": "token",
          "type": "address"
        }
      ],
      "name": "getVestedAmount",
      "outputs": [
        {
          "internalType": "uint256",
          "name": "",
          "type": "uint256"
        }
      ],
      "stateMutability": "view",
      "type": "function"
    },
    {
      "inputs": [
        {
          "internalType": "contract IBEP20",
          "name": "token",
          "type": "address"
        }
      ],
      "name": "release",
      "outputs": [],
      "stateMutability": "nonpayable",
      "type": "function"
    },
    {
      "inputs": [
        {
          "internalType": "contract IBEP20",
          "name": "token",
          "type": "address"
        }
      ],
      "name": "revoke",
      "outputs": [],
      "stateMutability": "nonpayable",
      "type": "function"
    }
  ],
  "bytecode": "0x60806040523480156200001157600080fd5b506040516200234b3803806200234b83398181016040528101906200003791906200057e565b600062000049620002ea60201b60201c565b9050806000806101000a81548173ffffffffffffffffffffffffffffffffffffffff021916908373ffffffffffffffffffffffffffffffffffffffff1602179055508073ffffffffffffffffffffffffffffffffffffffff16600073ffffffffffffffffffffffffffffffffffffffff167f8be0079c531659141344cd1fd0a4f28419497f9722a3daafe3b4186f6b6457e060405160405180910390a350600073ffffffffffffffffffffffffffffffffffffffff168673ffffffffffffffffffffffffffffffffffffffff1614156200015a576040517f08c379a0000000000000000000000000000000000000000000000000000000008152600401620001519062000747565b60405180910390fd5b82841115620001a0576040517f08c379a00000000000000000000000000000000000000000000000000000000081526004016200019790620007ad565b60405180910390fd5b60008311620001e6576040517f08c379a0000000000000000000000000000000000000000000000000000000008152600401620001dd90620007f1565b60405180910390fd5b42620002018487620002f260201b620009fb1790919060201c565b1162000244576040517f08c379a00000000000000000000000000000000000000000000000000000000081526004016200023b9062000725565b60405180910390fd5b85600160006101000a81548173ffffffffffffffffffffffffffffffffffffffff021916908373ffffffffffffffffffffffffffffffffffffffff16021790555081600560006101000a81548160ff02191690831515021790555082600481905550620002c08486620002f260201b620009fb1790919060201c565b60028190555084600381905550620002de816200035560201b60201c565b50505050505062000aff565b600033905090565b600080828462000303919062000824565b9050838110156200034b576040517f08c379a000000000000000000000000000000000000000000000000000000000815260040162000342906200078b565b60405180910390fd5b8091505092915050565b62000365620002ea60201b60201c565b73ffffffffffffffffffffffffffffffffffffffff1660008054906101000a900473ffffffffffffffffffffffffffffffffffffffff1673ffffffffffffffffffffffffffffffffffffffff1614620003f5576040517f08c379a0000000000000000000000000000000000000000000000000000000008152600401620003ec90620007cf565b60405180910390fd5b62000406816200040960201b60201c565b50565b600073ffffffffffffffffffffffffffffffffffffffff168173ffffffffffffffffffffffffffffffffffffffff1614156200047c576040517f08c379a0000000000000000000000000000000000000000000000000000000008152600401620004739062000769565b60405180910390fd5b8073ffffffffffffffffffffffffffffffffffffffff1660008054906101000a900473ffffffffffffffffffffffffffffffffffffffff1673ffffffffffffffffffffffffffffffffffffffff167f8be0079c531659141344cd1fd0a4f28419497f9722a3daafe3b4186f6b6457e060405160405180910390a3806000806101000a81548173ffffffffffffffffffffffffffffffffffffffff021916908373ffffffffffffffffffffffffffffffffffffffff16021790555050565b6000815190506200054a8162000ab1565b92915050565b600081519050620005618162000acb565b92915050565b600081519050620005788162000ae5565b92915050565b60008060008060008060c087890312156200059857600080fd5b6000620005a889828a0162000539565b9650506020620005bb89828a0162000567565b9550506040620005ce89828a0162000567565b9450506060620005e189828a0162000567565b9350506080620005f489828a0162000550565b92505060a06200060789828a0162000539565b9150509295509295509295565b600062000623602f8362000813565b91506200063082620008fa565b604082019050919050565b60006200064a602d8362000813565b9150620006578262000949565b604082019050919050565b60006200067160268362000813565b91506200067e8262000998565b604082019050919050565b600062000698601b8362000813565b9150620006a582620009e7565b602082019050919050565b6000620006bf602b8362000813565b9150620006cc8262000a10565b604082019050919050565b6000620006e660208362000813565b9150620006f38262000a5f565b602082019050919050565b60006200070d601b8362000813565b91506200071a8262000a88565b602082019050919050565b60006020820190508181036000830152620007408162000614565b9050919050565b6000602082019050818103600083015262000762816200063b565b9050919050565b60006020820190508181036000830152620007848162000662565b9050919050565b60006020820190508181036000830152620007a68162000689565b9050919050565b60006020820190508181036000830152620007c881620006b0565b9050919050565b60006020820190508181036000830152620007ea81620006d7565b9050919050565b600060208201905081810360008301526200080c81620006fe565b9050919050565b600082825260208201905092915050565b60006200083182620008c1565b91506200083e83620008c1565b9250827fffffffffffffffffffffffffffffffffffffffffffffffffffffffffffffffff03821115620008765762000875620008cb565b5b828201905092915050565b60006200088e82620008a1565b9050919050565b60008115159050919050565b600073ffffffffffffffffffffffffffffffffffffffff82169050919050565b6000819050919050565b7f4e487b7100000000000000000000000000000000000000000000000000000000600052601160045260246000fd5b7f546f6b656e56657374696e673a2066696e616c2074696d65206973206265666f60008201527f72652063757272656e742074696d650000000000000000000000000000000000602082015250565b7f546f6b656e56657374696e673a2062656e65666963696172792069732074686560008201527f207a65726f206164647265737300000000000000000000000000000000000000602082015250565b7f4f776e61626c653a206e6577206f776e657220697320746865207a65726f206160008201527f6464726573730000000000000000000000000000000000000000000000000000602082015250565b7f536166654d6174683a206164646974696f6e206f766572666c6f770000000000600082015250565b7f546f6b656e56657374696e673a20636c696666206973206c6f6e67657220746860008201527f616e206475726174696f6e000000000000000000000000000000000000000000602082015250565b7f4f776e61626c653a2063616c6c6572206973206e6f7420746865206f776e6572600082015250565b7f546f6b656e56657374696e673a206475726174696f6e20697320300000000000600082015250565b62000abc8162000881565b811462000ac857600080fd5b50565b62000ad68162000895565b811462000ae257600080fd5b50565b62000af081620008c1565b811462000afc57600080fd5b50565b61183c8062000b0f6000396000f3fe608060405234801561001057600080fd5b50600436106100cf5760003560e01c80638ebd96231161008c578063c5292c6711610066578063c5292c67146101ee578063c6ec20671461020c578063d5a73fdd1461022a578063f2fde38b1461025a576100cf565b80638ebd962314610170578063ad2e8c9b146101a0578063b4d11f35146101be576100cf565b806319165587146100d4578063565a2e2c146100f057806363260e361461010e578063715018a61461012c57806374a8f103146101365780638da5cb5b14610152575b600080fd5b6100ee60048036038101906100e991906110c3565b610276565b005b6100f86103e5565b6040516101059190611270565b60405180910390f35b61011661040f565b60405161012391906113d1565b60405180910390f35b610134610419565b005b610150600480360381019061014b91906110c3565b61056c565b005b61015a610855565b6040516101679190611270565b60405180910390f35b61018a60048036038101906101859190611071565b61087e565b60405161019791906112b4565b60405180910390f35b6101a86108d4565b6040516101b591906113d1565b60405180910390f35b6101d860048036038101906101d39190611071565b6108de565b6040516101e591906113d1565b60405180910390f35b6101f6610927565b60405161020391906113d1565b60405180910390f35b610214610931565b60405161022191906112b4565b60405180910390f35b610244600480360381019061023f91906110c3565b610948565b60405161025191906113d1565b60405180910390f35b610274600480360381019061026f9190611071565b61095a565b005b600061028182610a59565b9050600081116102c6576040517f08c379a00000000000000000000000000000000000000000000000000000000081526004016102bd90611351565b60405180910390fd5b61031881600660008573ffffffffffffffffffffffffffffffffffffffff1673ffffffffffffffffffffffffffffffffffffffff168152602001908152602001600020546109fb90919063ffffffff16565b600660008473ffffffffffffffffffffffffffffffffffffffff1673ffffffffffffffffffffffffffffffffffffffff168152602001908152602001600020819055506103a8600160009054906101000a900473ffffffffffffffffffffffffffffffffffffffff16828473ffffffffffffffffffffffffffffffffffffffff16610abc9092919063ffffffff16565b7fc7798891864187665ac6dd119286e44ec13f014527aeeb2b8eb3fd413df9317982826040516103d992919061128b565b60405180910390a15050565b6000600160009054906101000a900473ffffffffffffffffffffffffffffffffffffffff16905090565b6000600254905090565b610421610b57565b73ffffffffffffffffffffffffffffffffffffffff1660008054906101000a900473ffffffffffffffffffffffffffffffffffffffff1673ffffffffffffffffffffffffffffffffffffffff16146104ae576040517f08c379a00000000000000000000000000000000000000000000000000000000081526004016104a590611391565b60405180910390fd5b600073ffffffffffffffffffffffffffffffffffffffff1660008054906101000a900473ffffffffffffffffffffffffffffffffffffffff1673ffffffffffffffffffffffffffffffffffffffff167f8be0079c531659141344cd1fd0a4f28419497f9722a3daafe3b4186f6b6457e060405160405180910390a360008060006101000a81548173ffffffffffffffffffffffffffffffffffffffff021916908373ffffffffffffffffffffffffffffffffffffffff160217905550565b610574610b57565b73ffffffffffffffffffffffffffffffffffffffff1660008054906101000a900473ffffffffffffffffffffffffffffffffffffffff1673ffffffffffffffffffffffffffffffffffffffff1614610601576040517f08c379a00000000000000000000000000000000000000000000000000000000081526004016105f890611391565b60405180910390fd5b600560009054906101000a900460ff16610650576040517f08c379a0000000000000000000000000000000000000000000000000000000008152600401610647906112f1565b60405180910390fd5b600760008273ffffffffffffffffffffffffffffffffffffffff1673ffffffffffffffffffffffffffffffffffffffff16815260200190815260200160002060009054906101000a900460ff16156106dd576040517f08c379a00000000000000000000000000000000000000000000000000000000081526004016106d4906113b1565b60405180910390fd5b60008173ffffffffffffffffffffffffffffffffffffffff166370a08231306040518263ffffffff1660e01b81526004016107189190611270565b60206040518083038186803b15801561073057600080fd5b505afa158015610744573d6000803e3d6000fd5b505050506040513d601f19601f8201168201806040525081019061076891906110ec565b9050600061077583610a59565b9050600061078c8284610b5f90919063ffffffff16565b90506001600760008673ffffffffffffffffffffffffffffffffffffffff1673ffffffffffffffffffffffffffffffffffffffff16815260200190815260200160002060006101000a81548160ff0219169083151502179055506108186107f1610855565b828673ffffffffffffffffffffffffffffffffffffffff16610abc9092919063ffffffff16565b7f39983c6d4d174a7aee564f449d4a5c3c7ac9649d72b7793c56901183996f8af6846040516108479190611270565b60405180910390a150505050565b60008060009054906101000a900473ffffffffffffffffffffffffffffffffffffffff16905090565b6000600760008373ffffffffffffffffffffffffffffffffffffffff1673ffffffffffffffffffffffffffffffffffffffff16815260200190815260200160002060009054906101000a900460ff169050919050565b6000600454905090565b6000600660008373ffffffffffffffffffffffffffffffffffffffff1673ffffffffffffffffffffffffffffffffffffffff168152602001908152602001600020549050919050565b6000600354905090565b6000600560009054906101000a900460ff16905090565b600061095382610ba9565b9050919050565b610962610b57565b73ffffffffffffffffffffffffffffffffffffffff1660008054906101000a900473ffffffffffffffffffffffffffffffffffffffff1673ffffffffffffffffffffffffffffffffffffffff16146109ef576040517f08c379a00000000000000000000000000000000000000000000000000000000081526004016109e690611391565b60405180910390fd5b6109f881610d64565b50565b6000808284610a0a9190611408565b905083811015610a4f576040517f08c379a0000000000000000000000000000000000000000000000000000000008152600401610a4690611331565b60405180910390fd5b8091505092915050565b6000610ab5600660008473ffffffffffffffffffffffffffffffffffffffff1673ffffffffffffffffffffffffffffffffffffffff16815260200190815260200160002054610aa784610ba9565b610b5f90919063ffffffff16565b9050919050565b8273ffffffffffffffffffffffffffffffffffffffff1663a9059cbb83836040518363ffffffff1660e01b8152600401610af792919061128b565b602060405180830381600087803b158015610b1157600080fd5b505af1158015610b25573d6000803e3d6000fd5b505050506040513d601f19601f82011682018060405250810190610b49919061109a565b610b5257600080fd5b505050565b600033905090565b6000610ba183836040518060400160405280601e81526020017f536166654d6174683a207375627472616374696f6e206f766572666c6f770000815250610e91565b905092915050565b6000808273ffffffffffffffffffffffffffffffffffffffff166370a08231306040518263ffffffff1660e01b8152600401610be59190611270565b60206040518083038186803b158015610bfd57600080fd5b505afa158015610c11573d6000803e3d6000fd5b505050506040513d601f19601f82011682018060405250810190610c3591906110ec565b90506000610c8b600660008673ffffffffffffffffffffffffffffffffffffffff1673ffffffffffffffffffffffffffffffffffffffff16815260200190815260200160002054836109fb90919063ffffffff16565b9050600254421015610ca257600092505050610d5f565b610cb96004546003546109fb90919063ffffffff16565b42101580610d105750600760008573ffffffffffffffffffffffffffffffffffffffff1673ffffffffffffffffffffffffffffffffffffffff16815260200190815260200160002060009054906101000a900460ff165b15610d1f578092505050610d5f565b610d5a600454610d4c610d3d60035442610b5f90919063ffffffff16565b84610ef590919063ffffffff16565b610f7090919063ffffffff16565b925050505b919050565b600073ffffffffffffffffffffffffffffffffffffffff168173ffffffffffffffffffffffffffffffffffffffff161415610dd4576040517f08c379a0000000000000000000000000000000000000000000000000000000008152600401610dcb90611311565b60405180910390fd5b8073ffffffffffffffffffffffffffffffffffffffff1660008054906101000a900473ffffffffffffffffffffffffffffffffffffffff1673ffffffffffffffffffffffffffffffffffffffff167f8be0079c531659141344cd1fd0a4f28419497f9722a3daafe3b4186f6b6457e060405160405180910390a3806000806101000a81548173ffffffffffffffffffffffffffffffffffffffff021916908373ffffffffffffffffffffffffffffffffffffffff16021790555050565b6000838311158290610ed9576040517f08c379a0000000000000000000000000000000000000000000000000000000008152600401610ed091906112cf565b60405180910390fd5b5060008385610ee891906114e9565b9050809150509392505050565b600080831415610f085760009050610f6a565b60008284610f16919061148f565b9050828482610f25919061145e565b14610f65576040517f08c379a0000000000000000000000000000000000000000000000000000000008152600401610f5c90611371565b60405180910390fd5b809150505b92915050565b6000610fb283836040518060400160405280601a81526020017f536166654d6174683a206469766973696f6e206279207a65726f000000000000815250610fba565b905092915050565b60008083118290611001576040517f08c379a0000000000000000000000000000000000000000000000000000000008152600401610ff891906112cf565b60405180910390fd5b5060008385611010919061145e565b9050809150509392505050565b60008135905061102c816117aa565b92915050565b600081519050611041816117c1565b92915050565b600081359050611056816117d8565b92915050565b60008151905061106b816117ef565b92915050565b60006020828403121561108357600080fd5b60006110918482850161101d565b91505092915050565b6000602082840312156110ac57600080fd5b60006110ba84828501611032565b91505092915050565b6000602082840312156110d557600080fd5b60006110e384828501611047565b91505092915050565b6000602082840312156110fe57600080fd5b600061110c8482850161105c565b91505092915050565b61111e8161151d565b82525050565b61112d8161152f565b82525050565b600061113e826113ec565b61114881856113f7565b9350611158818560208601611577565b61116181611608565b840191505092915050565b6000611179601b836113f7565b915061118482611619565b602082019050919050565b600061119c6026836113f7565b91506111a782611642565b604082019050919050565b60006111bf601b836113f7565b91506111ca82611691565b602082019050919050565b60006111e2601f836113f7565b91506111ed826116ba565b602082019050919050565b60006112056021836113f7565b9150611210826116e3565b604082019050919050565b60006112286020836113f7565b915061123382611732565b602082019050919050565b600061124b6023836113f7565b91506112568261175b565b604082019050919050565b61126a8161156d565b82525050565b60006020820190506112856000830184611115565b92915050565b60006040820190506112a06000830185611115565b6112ad6020830184611261565b9392505050565b60006020820190506112c96000830184611124565b92915050565b600060208201905081810360008301526112e98184611133565b905092915050565b6000602082019050818103600083015261130a8161116c565b9050919050565b6000602082019050818103600083015261132a8161118f565b9050919050565b6000602082019050818103600083015261134a816111b2565b9050919050565b6000602082019050818103600083015261136a816111d5565b9050919050565b6000602082019050818103600083015261138a816111f8565b9050919050565b600060208201905081810360008301526113aa8161121b565b9050919050565b600060208201905081810360008301526113ca8161123e565b9050919050565b60006020820190506113e66000830184611261565b92915050565b600081519050919050565b600082825260208201905092915050565b60006114138261156d565b915061141e8361156d565b9250827fffffffffffffffffffffffffffffffffffffffffffffffffffffffffffffffff03821115611453576114526115aa565b5b828201905092915050565b60006114698261156d565b91506114748361156d565b925082611484576114836115d9565b5b828204905092915050565b600061149a8261156d565b91506114a58361156d565b9250817fffffffffffffffffffffffffffffffffffffffffffffffffffffffffffffffff04831182151516156114de576114dd6115aa565b5b828202905092915050565b60006114f48261156d565b91506114ff8361156d565b925082821015611512576115116115aa565b5b828203905092915050565b60006115288261154d565b9050919050565b60008115159050919050565b60006115468261151d565b9050919050565b600073ffffffffffffffffffffffffffffffffffffffff82169050919050565b6000819050919050565b60005b8381101561159557808201518184015260208101905061157a565b838111156115a4576000848401525b50505050565b7f4e487b7100000000000000000000000000000000000000000000000000000000600052601160045260246000fd5b7f4e487b7100000000000000000000000000000000000000000000000000000000600052601260045260246000fd5b6000601f19601f8301169050919050565b7f546f6b656e56657374696e673a2063616e6e6f74207265766f6b650000000000600082015250565b7f4f776e61626c653a206e6577206f776e657220697320746865207a65726f206160008201527f6464726573730000000000000000000000000000000000000000000000000000602082015250565b7f536166654d6174683a206164646974696f6e206f766572666c6f770000000000600082015250565b7f546f6b656e56657374696e673a206e6f20746f6b656e73206172652064756500600082015250565b7f536166654d6174683a206d756c7469706c69636174696f6e206f766572666c6f60008201527f7700000000000000000000000000000000000000000000000000000000000000602082015250565b7f4f776e61626c653a2063616c6c6572206973206e6f7420746865206f776e6572600082015250565b7f546f6b656e56657374696e673a20746f6b656e20616c7265616479207265766f60008201527f6b65640000000000000000000000000000000000000000000000000000000000602082015250565b6117b38161151d565b81146117be57600080fd5b50565b6117ca8161152f565b81146117d557600080fd5b50565b6117e18161153b565b81146117ec57600080fd5b50565b6117f88161156d565b811461180357600080fd5b5056fea264697066735822122075acb8db7bfdabca058d0de90668174288dab51dd6d141bb01aaccfa2779049c64736f6c63430008030033",
  "immutableReferences": {},
  "source": "// SPDX-License-Identifier: UNLICENSED\npragma solidity ^0.8.3;\n\nimport './libs/SafeBEP20.sol';\nimport './libs/Ownable.sol';\nimport './libs/SafeMath.sol';\n\n/**\n * @title TokenVesting\n * @dev A token holder contract that can release its token balance gradually like a\n * typical vesting scheme, with a cliff and vesting period. Optionally revocable by the\n * owner.\n */\ncontract TokenVesting is Ownable {\n  // The vesting schedule is time-based (i.e. using block timestamps as opposed to e.g. block numbers), and is\n  // therefore sensitive to timestamp manipulation (which is something miners can do, to a certain degree). Therefore,\n  // it is recommended to avoid using short time durations (less than a minute). Typical vesting schemes, with a\n  // cliff period of a year and a duration of four years, are safe to use.\n  // solhint-disable not-rely-on-time\n\n  using SafeMath for uint256;\n  using SafeBEP20 for IBEP20;\n\n  event TokensReleased(address token, uint256 amount);\n  event TokenVestingRevoked(address token);\n\n  // beneficiary of tokens after they are released\n  address private beneficiary;\n\n  // Durations and timestamps are expressed in UNIX time, the same units as block.timestamp.\n  uint256 private cliff;\n  uint256 private start;\n  uint256 private duration;\n\n  bool private revocable;\n\n  mapping(address => uint256) private released;\n  mapping(address => bool) private revoked;\n\n  /**\n   * @dev Creates a vesting contract that vests its balance of any ERC20 token to the\n   * beneficiary, gradually in a linear fashion until start + duration. By then all\n   * of the balance will have vested.\n   * @param _beneficiary address of the beneficiary to whom vested tokens are transferred\n   * @param _cliffDuration duration in seconds of the cliff in which tokens will begin to vest\n   * @param _start the time (as Unix time) at which point vesting starts\n   * @param _duration duration in seconds of the period in which the tokens will vest\n   * @param _revocable whether the vesting is revocable or not\n   */\n  constructor(\n    address _beneficiary,\n    uint256 _start,\n    uint256 _cliffDuration,\n    uint256 _duration,\n    bool _revocable,\n    address _owner\n  ) {\n    require(\n      _beneficiary != address(0),\n      'TokenVesting: beneficiary is the zero address'\n    );\n    // solhint-disable-next-line max-line-length\n    require(\n      _cliffDuration <= _duration,\n      'TokenVesting: cliff is longer than duration'\n    );\n    require(_duration > 0, 'TokenVesting: duration is 0');\n    // solhint-disable-next-line max-line-length\n    require(\n      _start.add(_duration) > block.timestamp,\n      'TokenVesting: final time is before current time'\n    );\n\n    beneficiary = _beneficiary;\n    revocable = _revocable;\n    duration = _duration;\n    cliff = _start.add(_cliffDuration);\n    start = _start;\n\n    transferOwnership(_owner);\n  }\n\n  /**\n   * @return the beneficiary of the tokens.\n   */\n  function getBeneficiary() external view returns (address) {\n    return beneficiary;\n  }\n\n  /**\n   * @return the cliff time of the token vesting.\n   */\n  function getCliff() external view returns (uint256) {\n    return cliff;\n  }\n\n  /**\n   * @return the start time of the token vesting.\n   */\n  function getStart() external view returns (uint256) {\n    return start;\n  }\n\n  /**\n   * @return the duration of the token vesting.\n   */\n  function getDuration() external view returns (uint256) {\n    return duration;\n  }\n\n  /**\n   * @return true if the vesting is revocable.\n   */\n  function getRevocable() external view returns (bool) {\n    return revocable;\n  }\n\n  /**\n   * @return the amount of the token released.\n   */\n  function getReleased(address token) external view returns (uint256) {\n    return released[token];\n  }\n\n  /**\n   * @return true if the token is revoked.\n   */\n  function getRevoked(address token) external view returns (bool) {\n    return revoked[token];\n  }\n\n  /**\n   * @return the amount of the token vested.\n   */\n  function getVestedAmount(IBEP20 token) external view returns (uint256) {\n    return _vestedAmount(token);\n  }\n\n  /**\n   * @notice Transfers vested tokens to beneficiary.\n   * @param token ERC20 token which is being vested\n   */\n  function release(IBEP20 token) public {\n    uint256 unreleased = _releasableAmount(token);\n\n    require(unreleased > 0, 'TokenVesting: no tokens are due');\n\n    released[address(token)] = released[address(token)].add(unreleased);\n\n    token.safeTransfer(beneficiary, unreleased);\n\n    emit TokensReleased(address(token), unreleased);\n  }\n\n  /**\n   * @notice Allows the owner to revoke the vesting. Tokens already vested\n   * remain in the contract, the rest are returned to the owner.\n   * @param token ERC20 token which is being vested\n   */\n  function revoke(IBEP20 token) public onlyOwner {\n    require(revocable, 'TokenVesting: cannot revoke');\n    require(!revoked[address(token)], 'TokenVesting: token already revoked');\n\n    uint256 balance = token.balanceOf(address(this));\n\n    uint256 unreleased = _releasableAmount(token);\n    uint256 refund = balance.sub(unreleased);\n\n    revoked[address(token)] = true;\n\n    token.safeTransfer(owner(), refund);\n\n    emit TokenVestingRevoked(address(token));\n  }\n\n  /**\n   * @dev Calculates the amount that has already vested but hasn't been released yet.\n   * @param token ERC20 token which is being vested\n   */\n  function _releasableAmount(IBEP20 token) private view returns (uint256) {\n    return _vestedAmount(token).sub(released[address(token)]);\n  }\n\n  /**\n   * @dev Calculates the amount that has already vested.\n   * @param token ERC20 token which is being vested\n   */\n  function _vestedAmount(IBEP20 token) private view returns (uint256) {\n    uint256 currentBalance = token.balanceOf(address(this));\n    uint256 totalBalance = currentBalance.add(released[address(token)]);\n\n    if (block.timestamp < cliff) {\n      return 0;\n    } else if (\n      block.timestamp >= start.add(duration) || revoked[address(token)]\n    ) {\n      return totalBalance;\n    } else {\n      return totalBalance.mul(block.timestamp.sub(start)).div(duration);\n    }\n  }\n}\n",
  "sourcePath": "/Users/albertchen/development/refinableco/contracts-tge/blockchain/contracts/TokenVesting.sol",
  "compiler": {
    "name": "solc",
    "version": "0.8.3+commit.8d00100c.Emscripten.clang"
  },
  "schemaVersion": "3.3.4",
  "updatedAt": "2021-04-04T09:27:34.865Z",
  "devdoc": {
    "details": "A token holder contract that can release its token balance gradually like a typical vesting scheme, with a cliff and vesting period. Optionally revocable by the owner.",
    "kind": "dev",
    "methods": {
      "constructor": {
        "details": "Creates a vesting contract that vests its balance of any ERC20 token to the beneficiary, gradually in a linear fashion until start + duration. By then all of the balance will have vested.",
        "params": {
          "_beneficiary": "address of the beneficiary to whom vested tokens are transferred",
          "_cliffDuration": "duration in seconds of the cliff in which tokens will begin to vest",
          "_duration": "duration in seconds of the period in which the tokens will vest",
          "_revocable": "whether the vesting is revocable or not",
          "_start": "the time (as Unix time) at which point vesting starts"
        }
      },
      "getBeneficiary()": {
        "returns": {
          "_0": "the beneficiary of the tokens."
        }
      },
      "getCliff()": {
        "returns": {
          "_0": "the cliff time of the token vesting."
        }
      },
      "getDuration()": {
        "returns": {
          "_0": "the duration of the token vesting."
        }
      },
      "getReleased(address)": {
        "returns": {
          "_0": "the amount of the token released."
        }
      },
      "getRevocable()": {
        "returns": {
          "_0": "true if the vesting is revocable."
        }
      },
      "getRevoked(address)": {
        "returns": {
          "_0": "true if the token is revoked."
        }
      },
      "getStart()": {
        "returns": {
          "_0": "the start time of the token vesting."
        }
      },
      "getVestedAmount(address)": {
        "returns": {
          "_0": "the amount of the token vested."
        }
      },
      "owner()": {
        "details": "Returns the address of the current owner."
      },
      "release(address)": {
        "params": {
          "token": "ERC20 token which is being vested"
        }
      },
      "renounceOwnership()": {
        "details": "Leaves the contract without owner. It will not be possible to call `onlyOwner` functions anymore. Can only be called by the current owner. NOTE: Renouncing ownership will leave the contract without an owner, thereby removing any functionality that is only available to the owner."
      },
      "revoke(address)": {
        "params": {
          "token": "ERC20 token which is being vested"
        }
      },
      "transferOwnership(address)": {
        "details": "Transfers ownership of the contract to a new account (`newOwner`). Can only be called by the current owner."
      }
    },
    "title": "TokenVesting",
    "version": 1
  },
  "userdoc": {
    "kind": "user",
    "methods": {
      "release(address)": {
        "notice": "Transfers vested tokens to beneficiary."
      },
      "revoke(address)": {
        "notice": "Allows the owner to revoke the vesting. Tokens already vested remain in the contract, the rest are returned to the owner."
      }
    },
    "version": 1
  }
}