{
  "contractName": "TokenVestingFactory",
  "abi": [
    {
      "anonymous": false,
      "inputs": [
        {
          "indexed": false,
          "internalType": "address",
          "name": "instantiation",
          "type": "address"
        },
        {
          "indexed": false,
          "internalType": "address",
          "name": "beneficiary",
          "type": "address"
        }
      ],
      "name": "ContractInstantiation",
      "type": "event"
    },
    {
      "inputs": [],
      "name": "getVestingAddress",
      "outputs": [
        {
          "internalType": "address",
          "name": "",
          "type": "address"
        }
      ],
      "stateMutability": "view",
      "type": "function"
    },
    {
      "inputs": [
        {
          "internalType": "address",
          "name": "",
          "type": "address"
        }
      ],
      "name": "isInstantiation",
      "outputs": [
        {
          "internalType": "bool",
          "name": "",
          "type": "bool"
        }
      ],
      "stateMutability": "view",
      "type": "function"
    },
    {
      "inputs": [
        {
          "internalType": "address",
          "name": "",
          "type": "address"
        }
      ],
      "name": "vestingAddress",
      "outputs": [
        {
          "internalType": "address",
          "name": "",
          "type": "address"
        }
      ],
      "stateMutability": "view",
      "type": "function"
    },
    {
      "inputs": [
        {
          "internalType": "address",
          "name": "_beneficiary",
          "type": "address"
        },
        {
          "internalType": "uint256",
          "name": "_start",
          "type": "uint256"
        },
        {
          "internalType": "uint256",
          "name": "_cliffDuration",
          "type": "uint256"
        },
        {
          "internalType": "uint256",
          "name": "_duration",
          "type": "uint256"
        },
        {
          "internalType": "bool",
          "name": "_revocable",
          "type": "bool"
        },
        {
          "internalType": "address",
          "name": "_owner",
          "type": "address"
        }
      ],
      "name": "create",
      "outputs": [
        {
          "internalType": "address",
          "name": "contractAddress",
          "type": "address"
        }
      ],
      "stateMutability": "nonpayable",
      "type": "function"
    }
  ],
  "bytecode": "0x608060405234801561001057600080fd5b50612af4806100206000396000f3fe60806040523480156200001157600080fd5b5060043610620000525760003560e01c80632f4f331614620000575780632f5deafe146200008d5780634b1e4a2814620000c3578063ff1764a414620000f9575b600080fd5b6200007560048036038101906200006f919062000469565b6200011b565b6040516200008491906200063c565b60405180910390f35b620000ab6004803603810190620000a5919062000469565b6200013b565b604051620000ba919062000585565b60405180910390f35b620000e16004803603810190620000db919062000495565b6200016e565b604051620000f0919062000585565b60405180910390f35b620001036200029b565b60405162000112919062000585565b60405180910390f35b60006020528060005260406000206000915054906101000a900460ff1681565b60016020528060005260406000206000915054906101000a900473ffffffffffffffffffffffffffffffffffffffff1681565b60008073ffffffffffffffffffffffffffffffffffffffff16600160008973ffffffffffffffffffffffffffffffffffffffff1673ffffffffffffffffffffffffffffffffffffffff16815260200190815260200160002060009054906101000a900473ffffffffffffffffffffffffffffffffffffffff1673ffffffffffffffffffffffffffffffffffffffff161462000240576040517f08c379a0000000000000000000000000000000000000000000000000000000008152600401620002379062000659565b60405180910390fd5b868686868686604051620002549062000416565b6200026596959493929190620005cf565b604051809103906000f08015801562000282573d6000803e3d6000fd5b50905062000291818862000302565b9695505050505050565b6000600160003373ffffffffffffffffffffffffffffffffffffffff1673ffffffffffffffffffffffffffffffffffffffff16815260200190815260200160002060009054906101000a900473ffffffffffffffffffffffffffffffffffffffff16905090565b60016000808473ffffffffffffffffffffffffffffffffffffffff1673ffffffffffffffffffffffffffffffffffffffff16815260200190815260200160002060006101000a81548160ff02191690831515021790555081600160008373ffffffffffffffffffffffffffffffffffffffff1673ffffffffffffffffffffffffffffffffffffffff16815260200190815260200160002060006101000a81548173ffffffffffffffffffffffffffffffffffffffff021916908373ffffffffffffffffffffffffffffffffffffffff1602179055507f4fb057ad4a26ed17a57957fa69c306f11987596069b89521c511fc9a894e616182826040516200040a929190620005a2565b60405180910390a15050565b61234b806200077483390190565b600081359050620004358162000725565b92915050565b6000813590506200044c816200073f565b92915050565b600081359050620004638162000759565b92915050565b6000602082840312156200047c57600080fd5b60006200048c8482850162000424565b91505092915050565b60008060008060008060c08789031215620004af57600080fd5b6000620004bf89828a0162000424565b9650506020620004d289828a0162000452565b9550506040620004e589828a0162000452565b9450506060620004f889828a0162000452565b93505060806200050b89828a016200043b565b92505060a06200051e89828a0162000424565b9150509295509295509295565b62000536816200068c565b82525050565b6200054781620006a0565b82525050565b60006200055c602b836200067b565b91506200056982620006d6565b604082019050919050565b6200057f81620006cc565b82525050565b60006020820190506200059c60008301846200052b565b92915050565b6000604082019050620005b960008301856200052b565b620005c860208301846200052b565b9392505050565b600060c082019050620005e660008301896200052b565b620005f5602083018862000574565b62000604604083018762000574565b62000613606083018662000574565b6200062260808301856200053c565b6200063160a08301846200052b565b979650505050505050565b60006020820190506200065360008301846200053c565b92915050565b6000602082019050818103600083015262000674816200054d565b9050919050565b600082825260208201905092915050565b60006200069982620006ac565b9050919050565b60008115159050919050565b600073ffffffffffffffffffffffffffffffffffffffff82169050919050565b6000819050919050565b7f42656e656669636961727920616c72656164792068617320612076657374696e60008201527f6720636f6e747261637421000000000000000000000000000000000000000000602082015250565b62000730816200068c565b81146200073c57600080fd5b50565b6200074a81620006a0565b81146200075657600080fd5b50565b6200076481620006cc565b81146200077057600080fd5b5056fe60806040523480156200001157600080fd5b506040516200234b3803806200234b83398181016040528101906200003791906200057e565b600062000049620002ea60201b60201c565b9050806000806101000a81548173ffffffffffffffffffffffffffffffffffffffff021916908373ffffffffffffffffffffffffffffffffffffffff1602179055508073ffffffffffffffffffffffffffffffffffffffff16600073ffffffffffffffffffffffffffffffffffffffff167f8be0079c531659141344cd1fd0a4f28419497f9722a3daafe3b4186f6b6457e060405160405180910390a350600073ffffffffffffffffffffffffffffffffffffffff168673ffffffffffffffffffffffffffffffffffffffff1614156200015a576040517f08c379a0000000000000000000000000000000000000000000000000000000008152600401620001519062000747565b60405180910390fd5b82841115620001a0576040517f08c379a00000000000000000000000000000000000000000000000000000000081526004016200019790620007ad565b60405180910390fd5b60008311620001e6576040517f08c379a0000000000000000000000000000000000000000000000000000000008152600401620001dd90620007f1565b60405180910390fd5b42620002018487620002f260201b620009fb1790919060201c565b1162000244576040517f08c379a00000000000000000000000000000000000000000000000000000000081526004016200023b9062000725565b60405180910390fd5b85600160006101000a81548173ffffffffffffffffffffffffffffffffffffffff021916908373ffffffffffffffffffffffffffffffffffffffff16021790555081600560006101000a81548160ff02191690831515021790555082600481905550620002c08486620002f260201b620009fb1790919060201c565b60028190555084600381905550620002de816200035560201b60201c565b50505050505062000aff565b600033905090565b600080828462000303919062000824565b9050838110156200034b576040517f08c379a000000000000000000000000000000000000000000000000000000000815260040162000342906200078b565b60405180910390fd5b8091505092915050565b62000365620002ea60201b60201c565b73ffffffffffffffffffffffffffffffffffffffff1660008054906101000a900473ffffffffffffffffffffffffffffffffffffffff1673ffffffffffffffffffffffffffffffffffffffff1614620003f5576040517f08c379a0000000000000000000000000000000000000000000000000000000008152600401620003ec90620007cf565b60405180910390fd5b62000406816200040960201b60201c565b50565b600073ffffffffffffffffffffffffffffffffffffffff168173ffffffffffffffffffffffffffffffffffffffff1614156200047c576040517f08c379a0000000000000000000000000000000000000000000000000000000008152600401620004739062000769565b60405180910390fd5b8073ffffffffffffffffffffffffffffffffffffffff1660008054906101000a900473ffffffffffffffffffffffffffffffffffffffff1673ffffffffffffffffffffffffffffffffffffffff167f8be0079c531659141344cd1fd0a4f28419497f9722a3daafe3b4186f6b6457e060405160405180910390a3806000806101000a81548173ffffffffffffffffffffffffffffffffffffffff021916908373ffffffffffffffffffffffffffffffffffffffff16021790555050565b6000815190506200054a8162000ab1565b92915050565b600081519050620005618162000acb565b92915050565b600081519050620005788162000ae5565b92915050565b60008060008060008060c087890312156200059857600080fd5b6000620005a889828a0162000539565b9650506020620005bb89828a0162000567565b9550506040620005ce89828a0162000567565b9450506060620005e189828a0162000567565b9350506080620005f489828a0162000550565b92505060a06200060789828a0162000539565b9150509295509295509295565b600062000623602f8362000813565b91506200063082620008fa565b604082019050919050565b60006200064a602d8362000813565b9150620006578262000949565b604082019050919050565b60006200067160268362000813565b91506200067e8262000998565b604082019050919050565b600062000698601b8362000813565b9150620006a582620009e7565b602082019050919050565b6000620006bf602b8362000813565b9150620006cc8262000a10565b604082019050919050565b6000620006e660208362000813565b9150620006f38262000a5f565b602082019050919050565b60006200070d601b8362000813565b91506200071a8262000a88565b602082019050919050565b60006020820190508181036000830152620007408162000614565b9050919050565b6000602082019050818103600083015262000762816200063b565b9050919050565b60006020820190508181036000830152620007848162000662565b9050919050565b60006020820190508181036000830152620007a68162000689565b9050919050565b60006020820190508181036000830152620007c881620006b0565b9050919050565b60006020820190508181036000830152620007ea81620006d7565b9050919050565b600060208201905081810360008301526200080c81620006fe565b9050919050565b600082825260208201905092915050565b60006200083182620008c1565b91506200083e83620008c1565b9250827fffffffffffffffffffffffffffffffffffffffffffffffffffffffffffffffff03821115620008765762000875620008cb565b5b828201905092915050565b60006200088e82620008a1565b9050919050565b60008115159050919050565b600073ffffffffffffffffffffffffffffffffffffffff82169050919050565b6000819050919050565b7f4e487b7100000000000000000000000000000000000000000000000000000000600052601160045260246000fd5b7f546f6b656e56657374696e673a2066696e616c2074696d65206973206265666f60008201527f72652063757272656e742074696d650000000000000000000000000000000000602082015250565b7f546f6b656e56657374696e673a2062656e65666963696172792069732074686560008201527f207a65726f206164647265737300000000000000000000000000000000000000602082015250565b7f4f776e61626c653a206e6577206f776e657220697320746865207a65726f206160008201527f6464726573730000000000000000000000000000000000000000000000000000602082015250565b7f536166654d6174683a206164646974696f6e206f766572666c6f770000000000600082015250565b7f546f6b656e56657374696e673a20636c696666206973206c6f6e67657220746860008201527f616e206475726174696f6e000000000000000000000000000000000000000000602082015250565b7f4f776e61626c653a2063616c6c6572206973206e6f7420746865206f776e6572600082015250565b7f546f6b656e56657374696e673a206475726174696f6e20697320300000000000600082015250565b62000abc8162000881565b811462000ac857600080fd5b50565b62000ad68162000895565b811462000ae257600080fd5b50565b62000af081620008c1565b811462000afc57600080fd5b50565b61183c8062000b0f6000396000f3fe608060405234801561001057600080fd5b50600436106100cf5760003560e01c80638ebd96231161008c578063c5292c6711610066578063c5292c67146101ee578063c6ec20671461020c578063d5a73fdd1461022a578063f2fde38b1461025a576100cf565b80638ebd962314610170578063ad2e8c9b146101a0578063b4d11f35146101be576100cf565b806319165587146100d4578063565a2e2c146100f057806363260e361461010e578063715018a61461012c57806374a8f103146101365780638da5cb5b14610152575b600080fd5b6100ee60048036038101906100e991906110c3565b610276565b005b6100f86103e5565b6040516101059190611270565b60405180910390f35b61011661040f565b60405161012391906113d1565b60405180910390f35b610134610419565b005b610150600480360381019061014b91906110c3565b61056c565b005b61015a610855565b6040516101679190611270565b60405180910390f35b61018a60048036038101906101859190611071565b61087e565b60405161019791906112b4565b60405180910390f35b6101a86108d4565b6040516101b591906113d1565b60405180910390f35b6101d860048036038101906101d39190611071565b6108de565b6040516101e591906113d1565b60405180910390f35b6101f6610927565b60405161020391906113d1565b60405180910390f35b610214610931565b60405161022191906112b4565b60405180910390f35b610244600480360381019061023f91906110c3565b610948565b60405161025191906113d1565b60405180910390f35b610274600480360381019061026f9190611071565b61095a565b005b600061028182610a59565b9050600081116102c6576040517f08c379a00000000000000000000000000000000000000000000000000000000081526004016102bd90611351565b60405180910390fd5b61031881600660008573ffffffffffffffffffffffffffffffffffffffff1673ffffffffffffffffffffffffffffffffffffffff168152602001908152602001600020546109fb90919063ffffffff16565b600660008473ffffffffffffffffffffffffffffffffffffffff1673ffffffffffffffffffffffffffffffffffffffff168152602001908152602001600020819055506103a8600160009054906101000a900473ffffffffffffffffffffffffffffffffffffffff16828473ffffffffffffffffffffffffffffffffffffffff16610abc9092919063ffffffff16565b7fc7798891864187665ac6dd119286e44ec13f014527aeeb2b8eb3fd413df9317982826040516103d992919061128b565b60405180910390a15050565b6000600160009054906101000a900473ffffffffffffffffffffffffffffffffffffffff16905090565b6000600254905090565b610421610b57565b73ffffffffffffffffffffffffffffffffffffffff1660008054906101000a900473ffffffffffffffffffffffffffffffffffffffff1673ffffffffffffffffffffffffffffffffffffffff16146104ae576040517f08c379a00000000000000000000000000000000000000000000000000000000081526004016104a590611391565b60405180910390fd5b600073ffffffffffffffffffffffffffffffffffffffff1660008054906101000a900473ffffffffffffffffffffffffffffffffffffffff1673ffffffffffffffffffffffffffffffffffffffff167f8be0079c531659141344cd1fd0a4f28419497f9722a3daafe3b4186f6b6457e060405160405180910390a360008060006101000a81548173ffffffffffffffffffffffffffffffffffffffff021916908373ffffffffffffffffffffffffffffffffffffffff160217905550565b610574610b57565b73ffffffffffffffffffffffffffffffffffffffff1660008054906101000a900473ffffffffffffffffffffffffffffffffffffffff1673ffffffffffffffffffffffffffffffffffffffff1614610601576040517f08c379a00000000000000000000000000000000000000000000000000000000081526004016105f890611391565b60405180910390fd5b600560009054906101000a900460ff16610650576040517f08c379a0000000000000000000000000000000000000000000000000000000008152600401610647906112f1565b60405180910390fd5b600760008273ffffffffffffffffffffffffffffffffffffffff1673ffffffffffffffffffffffffffffffffffffffff16815260200190815260200160002060009054906101000a900460ff16156106dd576040517f08c379a00000000000000000000000000000000000000000000000000000000081526004016106d4906113b1565b60405180910390fd5b60008173ffffffffffffffffffffffffffffffffffffffff166370a08231306040518263ffffffff1660e01b81526004016107189190611270565b60206040518083038186803b15801561073057600080fd5b505afa158015610744573d6000803e3d6000fd5b505050506040513d601f19601f8201168201806040525081019061076891906110ec565b9050600061077583610a59565b9050600061078c8284610b5f90919063ffffffff16565b90506001600760008673ffffffffffffffffffffffffffffffffffffffff1673ffffffffffffffffffffffffffffffffffffffff16815260200190815260200160002060006101000a81548160ff0219169083151502179055506108186107f1610855565b828673ffffffffffffffffffffffffffffffffffffffff16610abc9092919063ffffffff16565b7f39983c6d4d174a7aee564f449d4a5c3c7ac9649d72b7793c56901183996f8af6846040516108479190611270565b60405180910390a150505050565b60008060009054906101000a900473ffffffffffffffffffffffffffffffffffffffff16905090565b6000600760008373ffffffffffffffffffffffffffffffffffffffff1673ffffffffffffffffffffffffffffffffffffffff16815260200190815260200160002060009054906101000a900460ff169050919050565b6000600454905090565b6000600660008373ffffffffffffffffffffffffffffffffffffffff1673ffffffffffffffffffffffffffffffffffffffff168152602001908152602001600020549050919050565b6000600354905090565b6000600560009054906101000a900460ff16905090565b600061095382610ba9565b9050919050565b610962610b57565b73ffffffffffffffffffffffffffffffffffffffff1660008054906101000a900473ffffffffffffffffffffffffffffffffffffffff1673ffffffffffffffffffffffffffffffffffffffff16146109ef576040517f08c379a00000000000000000000000000000000000000000000000000000000081526004016109e690611391565b60405180910390fd5b6109f881610d64565b50565b6000808284610a0a9190611408565b905083811015610a4f576040517f08c379a0000000000000000000000000000000000000000000000000000000008152600401610a4690611331565b60405180910390fd5b8091505092915050565b6000610ab5600660008473ffffffffffffffffffffffffffffffffffffffff1673ffffffffffffffffffffffffffffffffffffffff16815260200190815260200160002054610aa784610ba9565b610b5f90919063ffffffff16565b9050919050565b8273ffffffffffffffffffffffffffffffffffffffff1663a9059cbb83836040518363ffffffff1660e01b8152600401610af792919061128b565b602060405180830381600087803b158015610b1157600080fd5b505af1158015610b25573d6000803e3d6000fd5b505050506040513d601f19601f82011682018060405250810190610b49919061109a565b610b5257600080fd5b505050565b600033905090565b6000610ba183836040518060400160405280601e81526020017f536166654d6174683a207375627472616374696f6e206f766572666c6f770000815250610e91565b905092915050565b6000808273ffffffffffffffffffffffffffffffffffffffff166370a08231306040518263ffffffff1660e01b8152600401610be59190611270565b60206040518083038186803b158015610bfd57600080fd5b505afa158015610c11573d6000803e3d6000fd5b505050506040513d601f19601f82011682018060405250810190610c3591906110ec565b90506000610c8b600660008673ffffffffffffffffffffffffffffffffffffffff1673ffffffffffffffffffffffffffffffffffffffff16815260200190815260200160002054836109fb90919063ffffffff16565b9050600254421015610ca257600092505050610d5f565b610cb96004546003546109fb90919063ffffffff16565b42101580610d105750600760008573ffffffffffffffffffffffffffffffffffffffff1673ffffffffffffffffffffffffffffffffffffffff16815260200190815260200160002060009054906101000a900460ff165b15610d1f578092505050610d5f565b610d5a600454610d4c610d3d60035442610b5f90919063ffffffff16565b84610ef590919063ffffffff16565b610f7090919063ffffffff16565b925050505b919050565b600073ffffffffffffffffffffffffffffffffffffffff168173ffffffffffffffffffffffffffffffffffffffff161415610dd4576040517f08c379a0000000000000000000000000000000000000000000000000000000008152600401610dcb90611311565b60405180910390fd5b8073ffffffffffffffffffffffffffffffffffffffff1660008054906101000a900473ffffffffffffffffffffffffffffffffffffffff1673ffffffffffffffffffffffffffffffffffffffff167f8be0079c531659141344cd1fd0a4f28419497f9722a3daafe3b4186f6b6457e060405160405180910390a3806000806101000a81548173ffffffffffffffffffffffffffffffffffffffff021916908373ffffffffffffffffffffffffffffffffffffffff16021790555050565b6000838311158290610ed9576040517f08c379a0000000000000000000000000000000000000000000000000000000008152600401610ed091906112cf565b60405180910390fd5b5060008385610ee891906114e9565b9050809150509392505050565b600080831415610f085760009050610f6a565b60008284610f16919061148f565b9050828482610f25919061145e565b14610f65576040517f08c379a0000000000000000000000000000000000000000000000000000000008152600401610f5c90611371565b60405180910390fd5b809150505b92915050565b6000610fb283836040518060400160405280601a81526020017f536166654d6174683a206469766973696f6e206279207a65726f000000000000815250610fba565b905092915050565b60008083118290611001576040517f08c379a0000000000000000000000000000000000000000000000000000000008152600401610ff891906112cf565b60405180910390fd5b5060008385611010919061145e565b9050809150509392505050565b60008135905061102c816117aa565b92915050565b600081519050611041816117c1565b92915050565b600081359050611056816117d8565b92915050565b60008151905061106b816117ef565b92915050565b60006020828403121561108357600080fd5b60006110918482850161101d565b91505092915050565b6000602082840312156110ac57600080fd5b60006110ba84828501611032565b91505092915050565b6000602082840312156110d557600080fd5b60006110e384828501611047565b91505092915050565b6000602082840312156110fe57600080fd5b600061110c8482850161105c565b91505092915050565b61111e8161151d565b82525050565b61112d8161152f565b82525050565b600061113e826113ec565b61114881856113f7565b9350611158818560208601611577565b61116181611608565b840191505092915050565b6000611179601b836113f7565b915061118482611619565b602082019050919050565b600061119c6026836113f7565b91506111a782611642565b604082019050919050565b60006111bf601b836113f7565b91506111ca82611691565b602082019050919050565b60006111e2601f836113f7565b91506111ed826116ba565b602082019050919050565b60006112056021836113f7565b9150611210826116e3565b604082019050919050565b60006112286020836113f7565b915061123382611732565b602082019050919050565b600061124b6023836113f7565b91506112568261175b565b604082019050919050565b61126a8161156d565b82525050565b60006020820190506112856000830184611115565b92915050565b60006040820190506112a06000830185611115565b6112ad6020830184611261565b9392505050565b60006020820190506112c96000830184611124565b92915050565b600060208201905081810360008301526112e98184611133565b905092915050565b6000602082019050818103600083015261130a8161116c565b9050919050565b6000602082019050818103600083015261132a8161118f565b9050919050565b6000602082019050818103600083015261134a816111b2565b9050919050565b6000602082019050818103600083015261136a816111d5565b9050919050565b6000602082019050818103600083015261138a816111f8565b9050919050565b600060208201905081810360008301526113aa8161121b565b9050919050565b600060208201905081810360008301526113ca8161123e565b9050919050565b60006020820190506113e66000830184611261565b92915050565b600081519050919050565b600082825260208201905092915050565b60006114138261156d565b915061141e8361156d565b9250827fffffffffffffffffffffffffffffffffffffffffffffffffffffffffffffffff03821115611453576114526115aa565b5b828201905092915050565b60006114698261156d565b91506114748361156d565b925082611484576114836115d9565b5b828204905092915050565b600061149a8261156d565b91506114a58361156d565b9250817fffffffffffffffffffffffffffffffffffffffffffffffffffffffffffffffff04831182151516156114de576114dd6115aa565b5b828202905092915050565b60006114f48261156d565b91506114ff8361156d565b925082821015611512576115116115aa565b5b828203905092915050565b60006115288261154d565b9050919050565b60008115159050919050565b60006115468261151d565b9050919050565b600073ffffffffffffffffffffffffffffffffffffffff82169050919050565b6000819050919050565b60005b8381101561159557808201518184015260208101905061157a565b838111156115a4576000848401525b50505050565b7f4e487b7100000000000000000000000000000000000000000000000000000000600052601160045260246000fd5b7f4e487b7100000000000000000000000000000000000000000000000000000000600052601260045260246000fd5b6000601f19601f8301169050919050565b7f546f6b656e56657374696e673a2063616e6e6f74207265766f6b650000000000600082015250565b7f4f776e61626c653a206e6577206f776e657220697320746865207a65726f206160008201527f6464726573730000000000000000000000000000000000000000000000000000602082015250565b7f536166654d6174683a206164646974696f6e206f766572666c6f770000000000600082015250565b7f546f6b656e56657374696e673a206e6f20746f6b656e73206172652064756500600082015250565b7f536166654d6174683a206d756c7469706c69636174696f6e206f766572666c6f60008201527f7700000000000000000000000000000000000000000000000000000000000000602082015250565b7f4f776e61626c653a2063616c6c6572206973206e6f7420746865206f776e6572600082015250565b7f546f6b656e56657374696e673a20746f6b656e20616c7265616479207265766f60008201527f6b65640000000000000000000000000000000000000000000000000000000000602082015250565b6117b38161151d565b81146117be57600080fd5b50565b6117ca8161152f565b81146117d557600080fd5b50565b6117e18161153b565b81146117ec57600080fd5b50565b6117f88161156d565b811461180357600080fd5b5056fea264697066735822122075acb8db7bfdabca058d0de90668174288dab51dd6d141bb01aaccfa2779049c64736f6c63430008030033a26469706673582212207622900d2d20dccdef2c0161407f47ec60adacbcf97e077160cd42ce0b69688d64736f6c63430008030033",
  "immutableReferences": {},
  "source": "// SPDX-License-Identifier: UNLICENSED\npragma solidity ^0.8.3;\n\nimport './TokenVesting.sol';\n\ncontract ContractFactory {\n  /*\n   *  Events\n   */\n  event ContractInstantiation(address instantiation, address beneficiary);\n\n  /*\n   *  Storage\n   */\n  mapping(address => bool) public isInstantiation;\n  mapping(address => address) public vestingAddress;\n\n  /// @dev Returns address of vesting contract\n  /// @return Returns address of vesting contract\n  function getVestingAddress() public view returns (address) {\n    return vestingAddress[msg.sender];\n  }\n\n  /*\n   * Internal functions\n   */\n  /// @dev Registers contract in factory registry.\n  /// @param instantiation Address of contract instantiation.\n  function register(address instantiation, address beneficiary) internal {\n    isInstantiation[instantiation] = true;\n    vestingAddress[beneficiary] = instantiation;\n    emit ContractInstantiation(instantiation, beneficiary);\n  }\n}\n\n/// @title Token Vesting Factory\n/// @author Albert Chen - <albert.chen@me.com>\ncontract TokenVestingFactory is ContractFactory {\n  /*\n   * Public functions\n   */\n  /// @dev Allows verified creation of Token Vesting Contract\n  /// Returns wallet address.\n  function create(\n    address _beneficiary,\n    uint256 _start,\n    uint256 _cliffDuration,\n    uint256 _duration,\n    bool _revocable,\n    address _owner\n  ) public returns (address contractAddress) {\n    require(\n      vestingAddress[_beneficiary] == address(0),\n      'Beneficiary already has a vesting contract!'\n    );\n\n    contractAddress = address(\n      new TokenVesting(\n        _beneficiary,\n        _start,\n        _cliffDuration,\n        _duration,\n        _revocable,\n        _owner\n      )\n    );\n\n    register(contractAddress, _beneficiary);\n  }\n}\n",
  "sourcePath": "/Users/albertchen/development/refinableco/contracts-tge/blockchain/contracts/TokenVestingFactory.sol",
  "compiler": {
    "name": "solc",
    "version": "0.8.3+commit.8d00100c.Emscripten.clang"
  },
  "schemaVersion": "3.3.4",
  "updatedAt": "2021-04-04T09:27:34.876Z",
  "devdoc": {
    "author": "Albert Chen - <albert.chen@me.com>",
    "kind": "dev",
    "methods": {
      "create(address,uint256,uint256,uint256,bool,address)": {
        "details": "Allows verified creation of Token Vesting Contract Returns wallet address."
      },
      "getVestingAddress()": {
        "details": "Returns address of vesting contract",
        "returns": {
          "_0": "Returns address of vesting contract"
        }
      }
    },
    "title": "Token Vesting Factory",
    "version": 1
  },
  "userdoc": {
    "kind": "user",
    "methods": {},
    "version": 1
  }
}